:020000040800F2
:100000006032012015030008354E0008BD3E00088F
:10001000314E00088D2000085167000800000000E4
:100020000000000000000000000000005B5A000813
:100030009120000800000000714E0008B75C000825
:100040002F0300082F0300082F0300082F030008C8
:100050002F0300082F0300082F0300082F030008B8
:100060002F0300082F0300082F0300082F030008A8
:100070002F0300082F0300082F0300082F03000898
:100080002F0300082F0300082F0300082F03000888
:100090002F0300082F0300082F0300082F03000878
:1000A0002F0300082F0300082F0300082F03000868
:1000B0002F0300089D5D0008F95D00082F0300086C
:1000C0002F0300082F0300082F0300082F03000848
:1000D0002F03000831660008D16600082F030008CE
:1000E0002F0300082F0300082F0300082F03000828
:1000F0002F0300082F0300082F0300082F03000818
:100100002F0300082F0300082F0300082F03000807
:100110002F0300082F0300082F0300082F030008F7
:100120002F0300082F0300082F0300082F030008E7
:100130002F0300082F0300082F0300082F030008D7
:100140002F0300082F0300082F0300082F030008C7
:100150002F0300082F0300082F0300082F030008B7
:100160002F0300082F0300082F0300082F030008A7
:100170002F0300082F03000800000000000000000B
:100180002F0300082F03000800F002F800F0B2F877
:100190000AA090E8000C82448344AAF10107DA45E2
:1001A00001D100F0A7F8AFF2090EBAE80F0013F082
:1001B000010F18BFFB1A43F001031847C0B201003A
:1001C000E0B201000A444FF0000C10F8013B13F0BC
:1001D000070408BF10F8014B1D1108BF10F8015BA0
:1001E000641E05D010F8016B641E01F8016BF9D193
:1001F00013F0080F1EBF10F8014BAD1C0C1B09D1EA
:100200006D1E58BF01F801CBFAD505E014F8016B5B
:1002100001F8016B6D1EF9D59142D6D370470000ED
:100220000023002400250026103A28BF78C1FBD8FF
:10023000520728BF30C148BF0B6070476E2900F0DD
:100240006584702900F03B8266290CF07281652973
:100250000CF06F8167290CF06C8161290CF06B81C7
:1002600003681B0A28BF41F08001692900F06E81F4
:10027000642900F06B81752900F068816F2900F016
:100280003487782900F00782E92900F09B81E4296E
:1002900000F09881F52900F09581EF2900F0318771
:1002A000F82900F006820368DB0928BF41F08001CD
:1002B000632900F07886732900F07D86E32901F038
:1002C000FB80F32901F00081002070471FB50CF07E
:1002D00026F900F021FF0400002000210BF066FC4D
:1002E000401C6060002000210BF04AFCE0601FBD54
:1002F00010B510BD01F086F91146FFF7E7FF09F0D0
:100300009FF801F0ADF903B4FFF7F2FF03BC06F06C
:100310006FFB00000948804709480047FEE7FEE7F9
:10032000FEE7FEE7FEE7FEE7FEE7FEE7FEE7FEE7A5
:1003300004480549054A064B704700004D5D00081A
:1003400089010008602C012060320120602E01200C
:10035000602E0120704753EA020C00F069802DE9FD
:10036000F04B4FF00006002B1FBFB3FA83F503FAE2
:1003700005F424FA05F65E4012BF1643B2FA82F580
:1003800002FA05F4C5F120051EBF22FA05FC44EA75
:100390000C04203556EA044C4FEA144418BF641C80
:1003A0004FF000084FF00009904271EB030C39D375
:1003B000002919BFB1FA81F701FA07F6B0FA80F700
:1003C00000FA07F6C7F120071EBF20FA07FC46EA2D
:1003D0000C062037B6FBF4FCA7EB0507103F07F02F
:1003E0001F0BCBF120060CFA0BFB2CFA06F644BFD0
:1003F000B3460026202FA4BF5E464FF0000B5BEAF9
:10040000060C08BF4FF0010B19EB0B09ABFB027C8C
:1004100048EB0608C01B06FB02CC0BFB03CC71EBC0
:100420000C01C1E70B46024641464846BDE8F08B49
:1004300013B54FF000004FF00001AFF30080BDE8AE
:100440001C4070471CB50C46064B7B446946009027
:10045000204600F086FD04460020694600F094FD29
:1004600020461CBD3B0B00000FB4044910B503AA85
:10047000029800F0A5FD10BC5DF814FBD40100202B
:100480000FB41CB5084B06AA7B446946009005983A
:1004900000F067FD04460020694600F075FD204627
:1004A0001CBC5DF814FB0000FD0A000070B504469A
:1004B00085690068C10601D5302600E02026C00706
:1004C00007D070BDD4E9012130469047206A401C16
:1004D00020626D1EF6D570BD70B504468569007842
:1004E000C00707D170BDD4E9012120209047206AC0
:1004F000401C20626D1EF6D570BD70B50C460546D9
:10050000012A05D02878800600D5EA69002302E098
:10051000012305E05B1C934202D2E05C0028F9D184
:10052000A869E618C01AA861286A184428622846F3
:10053000FFF7BCFF04E0D5E9012114F8010B904757
:10054000B442F8D32846FFF7C7FF70BD2DE9F0414C
:100550000646002410687529314616A510D000F013
:100560006AFA002802DA404213A507E031688A07D8
:1005700001D512A502E0490704D511A5012401E027
:1005800000F062FA00210A2206F1240709E0B0FB1C
:10059000F2FCB0FBF2F302FB1C003030785418463A
:1005A000491C0028F3D123462A463046BDE8F041D5
:1005B00000F053BA000000002D0000002B000000E6
:1005C000200000002DE9F0418046D21D22F00702F4
:1005D0000025D2E90002F52915A614D0011E72F1FA
:1005E000000106DA0023D0EB030063EB020211A640
:1005F00008E0D8F800108B0701D50FA602E04907E4
:1006000001D50EA601251146002408F1240704E0B7
:1006100000F0CCF930323A55641C50EA0102F7D1AF
:100620002B46324621464046BDE8F04100F015BA5F
:10063000000000002D0000002B0000002000000042
:10064000F0B40D460188090502D5214C7C4402E036
:100650001F4C7C440E34002100F1240608E002F017
:100660000F071209E75D42EA03721B097754491C20
:1006700052EA0307F3D102780023120704D5702D44
:1006800006D009B1022311342246F0BC00F0E5B9CE
:1006900001231034F8E770B504460D462146106872
:1006A00000F0D2F9024629462046BDE870400023FA
:1006B000C6E7D21D22F00703D3E90023C0E7036891
:1006C000126843F0200303600823C3610023B7E7E7
:1006D000F4A801002DE9F05F894604464FF0000AB6
:1006E000DFF874B1FB44C0F820A02046E1688847D9
:1006F000002874D0252806D0D4E901219047206A2B
:10070000401C2062F1E700265F462046E1688847EA
:100710002028054607DB312D05D2781910F8200C6A
:1007200008B10643F1E7B00701D526F00406C4F886
:100730001CA00027C4F818A02A2D09D0284606F0CE
:1007400050F938B304EB8708303DC8F8185019E069
:1007500059F8041B204604EB87029161E168884741
:10076000012F054618D1E069002820DA26F020067E
:100770001DE0D8F8180000EB800005EB4000303891
:10078000C8F818002046E1688847054606F029F9B0
:100790000028EED1012F0AD02E2D08D12046E16885
:1007A00088477F1C0546022F46F02006C4DBA0695F
:1007B000002803DA404246F00106A061F00701D0AC
:1007C00026F010066C2D0BD0682D09D04C2D39D099
:1007D0006A2D35D0742D35D07A2D33D016E038E01F
:1007E000E1682F4620468847B842054609D16C2F5C
:1007F00026D04FF48060E1680643204688470546CE
:1008000004E06C2F1AD04FF4807006430DB3A5F1AD
:100810004100192802D8203546F400664A46294688
:10082000204626604E46FFF709FD80B101280BD017
:10083000F61D26F0070000F1080956E74020E4E71E
:100840008020D8E70020D6E706F104094DE72846C6
:1008500052E7206A00F002B884A8010030BCBDE86D
:10086000C09F30B505460B462A4613F8014B12F8D7
:10087000010B08B1A042F8D01CB1002802D06D1CB9
:10088000F1E7284630BD40EA0103024630B59B0738
:1008900010D14FF0013400E008C208C91D1B9D4370
:1008A00015EAC41FF8D013F0FF0102F8011B0DD0A8
:1008B0001B0AF8E711F8013B002B02F8013B05D0B9
:1008C00011F8013B002B02F8013BF3D130BD10B50C
:1008D000431C02E010F8011B71B18107FAD14FF0FF
:1008E000013202C88C1A8C4314EAC211F9D0C01A22
:1008F0000A0603D0C01E10BDC01A10BD0A0401D0E4
:10090000801E10BD0902FCD0401E10BD421E12F810
:10091000013F002BFBD111F8013B002B02F8013BFA
:10092000F9D170474FF0013C50F8042B51F8043BCB
:100930009A4221D1A2EB0C03934313EACC1317D1B3
:1009400050F8042B51F8043B9A4215D1A2EB0C034A
:10095000934313EACC130BD150F8042B51F8043B0A
:100960009A4209D1A2EB0C03934313EACC13DBD0D8
:100970004FF00000704700BFD01A01BAB1FA81F100
:1009800001F0180122FA01F0CB40C1F12001DBB2E5
:10099000C0B2C01A2CFA01F3D11A914311EAC31163
:1009A000E6D17047704770477047704730B5B0F177
:1009B0000A024FEA900E71F100034EEA817EB0EB1D
:1009C0000E0061EB91014FEA101E4EEA017E10EB22
:1009D0000E0041EB11114FEA102E4EEA016E10EBA2
:1009E0000E0041EB11214FEA104E4EEA014E10EB82
:1009F0000E0041EB1141401841F100014FEAD000D7
:100A000040EA41704FEAD10110EB80054FEA8104C2
:100A100044EA907444EB01046D1944EB0404521B46
:100A2000A3414FF0000348BF0A3200D530BD401C3F
:100A300041F1000130BD09684A0501D540B2704757
:100A4000C905FCD500B2704709684A0501D5C0B296
:100A50007047C905FCD580B270472DE9F0470D46B7
:100A600099469246044600F124080168880604D598
:100A7000E06921F01001216000E00120A84201DDC1
:100A8000471B00E00027A1697A1902EB0900081A48
:100A9000A0612078C00602D42046FFF707FD00269B
:100AA00008E0D4E901211AF806009047206A401CAA
:100AB000761C20624E45F4DB2078C0060AD520461D
:100AC000FFF7F4FC06E0D4E9012130209047206ACA
:100AD000401C2062381EA7F10107F4DC07E0D4E9CE
:100AE000012118F805009047206A401C2062281E4A
:100AF000A5F10105F3DC2046FFF7EEFC20780006A7
:100B000002D50220BDE8F0870120FBE711680268EA
:100B1000006A530501D508700AE0D30501D50880A5
:100B200006E0130603D5C217C1E9000200E0086021
:100B30000120704770472DE9FF4F0C461E464FF0CD
:100B4000FF378BB0D2E90001DDF860800A908A4659
:100B5000C1F30A5505B93D46002108464FF0000093
:100B6000BAF1000F00F4400005DA00EB80004FF40A
:100B7000400101EA50004FEA9059B9F1010F00DD40
:100B8000B9460A9850EA4A000ED044F61050A5F231
:100B9000FF3545432F14B8F1000F1ED07542291EB2
:100BA0001EDDC9F100021CE0B8F1010F4FF000009A
:100BB00001D0302103E0F24305E02154401CB04253
:100BC000FBDB30460022002121540B99C1F808803C
:100BD000C1E900200FB000F0BCB9BD1B6D1CDEE701
:100BE0004A4600DA694206A800F072FC06AB93E8B8
:100BF000070003AB83E8070050460A9900F039FD6F
:100C00008DE80700A0F500501F3800900398002DD4
:100C10000ADD42F21F014A460844002303A903905B
:100C2000684600F0A2FF09E0A0F500504A461F38D0
:100C3000002303A90390684600F0ACFF8DE807008D
:100C40000004000C03D04FF0FF30410800E01046D4
:100C5000B8F1000F03D00022009215461EE0751E69
:100C600005D4FFF7A3FE303262556D1EF9D5B346A9
:100C70000122084302D000227F1C04E020783028A3
:100C800001D100227F1E002A099784D01DE0112D7A
:100C900007DAFFF78BFE303262556D1C50EA010215
:100CA000F5D1084302D00098C8B10EE00021681EBB
:100CB00005E0235C625C63542254401E491C81425F
:100CC000F7DBAB46A81B401E0990002004F80B0080
:100CD0000B98099AC0F80880C0E9002B7AE7112622
:100CE0004FF0000857E72DE9F04F88460446D21D23
:100CF00022F0070191B0D1E90001CDE90A0105F028
:100D000058FE02460B98C00F01D02D2007E0206846
:100D1000810701D52B2002E0202101EAC000032A2F
:100D2000099001D0072A05DB03464146204600F022
:100D300079FB0BE12078800601D5E06900E0062010
:100D4000B8F1650F814606D0B8F1660F18D0B8F13A
:100D5000670F70D131E00020B9F1110F009001DB75
:100D6000112301E009F101030AAA01A90CA8FFF768
:100D7000E2FEDDE90C70002609F10105834647E03B
:100D800001204B4600904FF000470AAA01A90CA889
:100D9000FFF7D1FEDDE90DB00C995D46002610B9D4
:100DA00009F101000D18B9EB050003D4C0F1FF36BD
:100DB00009F10105A5EB09002BE0B9F1010F01DAFA
:100DC0004FF001090020B9F1110F0090484601DDF4
:100DD000112300E003460AAA01A90CA8FFF7ABFE05
:100DE000DDE90C704D4600268346207800070AD4C2
:100DF000AB4500DA5D4601A8012D04DD411911F86B
:100E0000011C302907D04F4502DA17F1040F04DA2C
:100E1000012082460FE06D1EEEE7002F02DCED1B85
:100E20003E4403E0781CA84200DD7D1CB81B00F1A5
:100E3000010A4FF000472078000703D4AA4501DBE0
:100E40004FF0FF3A0021B7F1004F0DF143088DF844
:100E5000431024D002202B23002F01DA7F422D23C0
:100E60000A21021EA0F1010000DC5FB197FBF1FC3A
:100E700097FBF1F201FB1C7C17460CF1300C08F8D3
:100E800001CDEEE7A8F1010003702188090501D525
:100E9000452100E06521A0F1010800F8011C099836
:100EA0000FA9A1EB0807FF1D00B10120411901EBBB
:100EB000EA70A1693844081A401EA0612078C00673
:100EC00002D42046FFF7F2FA099828B1D4E90121AB
:100ED0009047206A401C20622078C00622D5204618
:100EE000FFF7E4FA1EE0002E04DBB34502DD01A8A3
:100EF000805D00E03020D4E901219047206A401C49
:100F00002062761CAAF101005FEA000A0AD100F013
:100F100003F9C0680168405CD4E901219047206A68
:100F2000401C2062281EA5F10105DCDC07E0D4E9A5
:100F3000012118F8010B9047206A401C2062381EDE
:100F4000A7F10107F3DC2046FFF7C6FA032011B032
:100F500041E630BCBDE8C08F01694A1C02610878D7
:100F6000704700B58FB0CDE90131002105910549E9
:100F70007944CDE9031011466846FFF7ABFB0FB08B
:100F800000BD0000E5FFFFFF0A6802F8010B0A60E0
:100F9000704710B5436913B1AFF3008001E0FFF76C
:100FA000ACFA012010BD127800F124010A70002271
:100FB0004A700122EDE711684FF0FF32E9E70000C7
:100FC000074B70B50D467B44FFF7CBFF0446284620
:100FD00000F0F0FA10B14FF0FF3070BD204670BD48
:100FE0005B7F00002DE9FF5F15468A460446DFF867
:100FF000AC80F8440027D8E900103E46CDE9001047
:1010000010E03AF816106A4602A800F0D7FA411C20
:1010100007D02178890603D5E269391891420DD8A5
:101020000744761C2078800602D5E069B84205DDC9
:10103000AE42E6DB3AF816000028E2D1A069C01BF8
:10104000A0612046FFF732FAD8E90010CDE9001080
:10105000002017E03AF818106A4602A800F0AEFA2D
:10106000B0F1FF3F81460BD000250DF1080B05E0E4
:10107000D4E901211BF8050090476D1C4D45F7D3BD
:1010800008F10100B0428046E4DB206A3844206267
:101090002046FFF721FA00F003B800008A9F010004
:1010A0003FBCBDE8C09F000030B4002100F1240423
:1010B00008E002F00705D208303542EA4372DB0847
:1010C0006554491C52EA0305F3D10468002310A2B9
:1010D000250707D5A40600D421B1C46901230DA2B8
:1010E000641EC46130BCFFF7B8BC10B5044621468D
:1010F0001068FFF7A9FC02462046BDE81040002317
:10110000D2E7D21D22F00701D1E90023CCE700008D
:10111000000000003000000000487047202C012033
:101120002DE9F04F04460D46D21D22F0070089B08C
:10113000D0E900974846394605F03BFC0246F80FD7
:1011400001D02D2307E02068810701D52B2302E081
:10115000202101EAC0038DF820300BB1012000E00E
:101160000020032A824601D0072A04DB29462046B4
:1011700000F058F93FE12078800601D40D2500E009
:10118000E569C7F30A560D2D49DA00214FEA175BCE
:1011900008464FF00000002F00F4400007DA00EB93
:1011A00080004FF4400100EBD07001EA600081152F
:1011B000012901DD4FF0FF3100224FEA850CBCF11F
:1011C000180F06D31346ACF118004FF08052C240FE
:1011D00003E04FF4801323FA0CF30CF10C0CBCF178
:1011E000200F04D3ACF1200C09FA0CF001E007FA4F
:1011F0000CF000294FF0004801DD18B90FE00ED1C6
:1012000040450CD319EB02095F4121B9404502D199
:101210009F4329EA0209BBEB175F00D0761C2088A8
:10122000000502D57B48784402E07A4878441938B2
:1012300008AA302302F80A30037C0AF10101002ECB
:101240000AF1020A53546A4602DC4FF0300101E011
:101250004FF031014FF001088DF8001002D0A6F2D6
:10126000FF3603E059EA470100D06B4E002D02DC47
:101270002178090704D54FF002082E218DF80110BE
:10128000C44600210BE0C7F303433F01C35C491C84
:101290006D1E02F80830052908F1010801DA002D59
:1012A000F1DC00210CE000EB1973491C1B786D1E6A
:1012B000082902F808304FEA091908F1010801DA93
:1012C000002DF0DC21688B0602D516E0A8F101089C
:1012D000E04505DD02EB080313F8013C302BF5D0A7
:1012E000B8F1000F09DD02EB080313F8013C2E2BC7
:1012F00003D1090701D4A8F10108002D05DD3E2125
:1013000002F808106D1E08F10108407C002E02F85A
:10131000080008F1010804DA2D20764202F80800DE
:1013200002E02B2002F808000A214FF47A7086426E
:1013300008F101080BDB96FBF0F3303302F80830BC
:1013400096FBF0F308F1010800FB136601E0642E40
:101350000CDB642096FBF0F3303302F8083096FB88
:10136000F0F308F1010800FB136601E00A2E06DB2A
:1013700096FBF1F0303002F8080008F1010896FB06
:10138000F1F001FB1060303002F80800A16908F1AB
:10139000010808EB050202EB0A00081AA061207898
:1013A000C00602D42046FFF781F8216A08AE01EB9F
:1013B0000A00206204E0D4E9012116F8010B9047ED
:1013C000BAF1010AF7D22078C00602D52046FFF70D
:1013D0006DF86E4609E016F8010B3E280FD0D4E9EF
:1013E00001219047206A401C2062B8F10108F2D226
:1013F0002046FFF771F809B0032000F00FB8206A0B
:101400002844206203E0D4E90121302090476D1E7A
:10141000EBD3F8E7719D010002FCFFFF30BCBDE893
:10142000C08F00002DE9F0411F46044603260168E5
:10143000072A01F4006004DB08B116A505E016A533
:1014400003E008B115A500E015A521F0100020600B
:10145000A069C01EA0610FB1401EA0612046FFF729
:1014600025F84FB1D4E9012138469047206A401C45
:101470002062C01C206206E0206AFAE7D4E901215C
:1014800015F8010B9047761EF8D22046FFF724F896
:10149000BDE8F0814E414E006E616E00494E46003F
:1014A000696E660010B5436913B1AFF3008001E0C7
:1014B000FFF798FD012010BD128800F124018284FD
:1014C0000022C2840122EDE711684FF0FF32E9E704
:1014D0002DE9F047814616468AB0354878440DC854
:1014E0008DE80D0032487844801C03AC0DC884E8B8
:1014F0000D0041F69B300844372190FBF1F290FB40
:10150000F1F5A5F1800501FB12041B3C02D56442F4
:10151000012000E00020DFF898A080460027FA4470
:10152000AAF1BE0A0EE0E0070AD03246684607EB91
:10153000470101230AEB810100F02CFB8DE8070035
:1015400064107F1C002CEED1194F7F44AE3F19E090
:10155000E80715D007EB04100DF1180A90E80E000B
:101560008AE80E00C068F04201D19819089032460E
:10157000012306A903A800F00DFB03AB83E80700D5
:101580006D10641C002DE3D14FF001033246694613
:10159000B8F1000F03A802D000F0E7FA01E000F074
:1015A000F9FAC9E90001C9F808200AB0BDE8F087D6
:1015B0004C9B0100007B00F08000704770B5164620
:1015C0000C46054600F044F8036893F80101012831
:1015D00006D0FF2C0FD8185D68B101202C7070BDAB
:1015E000D3F807013246214603F207130344284685
:1015F000BDE8704018474FF0FF3070BD004870479D
:10160000002C01207546FFF7F9FFAE46050069463C
:10161000534620F00700854618B020B5FEF788FE37
:10162000BDE820404FF000064FF000074FF00008E3
:101630004FF0000B21F00701AC46ACE8C009ACE864
:10164000C009ACE8C009ACE8C0098D46704700008D
:1016500010B5FFF761FD001D10BD00BF51A50000D2
:1016600010B50446AFF300802046BDE81040FEF7F9
:101670004ABE5FEA400C08BF91F0000F4FEA8C238E
:101680004FEAC12243EA51514FEA1C5018BF00F5FE
:10169000F0404FEA300018BF41F000415FEA6C5C57
:1016A00000F02980BCF1FF3F08BF40F08040704748
:1016B000130C06BF12044FF0100C4FF0000C130E69
:1016C00004BF12020CF1080C130F04BF12010CF13D
:1016D000040C930F04BF92000CF1020CD30F04BF53
:1016E00052000CF1010C11464FF00002A0F11F0056
:1016F000A0EB0C00704711F0004F08BF704731F0AD
:1017000000413FF4D5AF0B0C06BF09044FF0100C9D
:101710004FF0000C0B0E04BF09020CF1080C0B0F6C
:1017200004BF09010CF1040C8B0F04BF89000CF1FC
:10173000020CCB0F04BF49000CF1010CCCF12003CB
:10174000A0EB0C0022FA03F302FA0CF241EA0301C7
:1017500000F10100704720F07F4C80EA030023F085
:101760007F47ACEB070303F57C5300F0004003F127
:10177000FF032DE980494FEA154B09B44FEA1443A2
:1017800025EA0B4E24EA03480FF2042606EB132742
:1017900049083E785FEA320203FB0667C7F5000797
:1017A00007FB06F64FEA54374FEAD64606F1020623
:1017B00007FB066CCCF1005C4FEA1C472CEA074C97
:1017C00007FB06F40CFB06F504EB15464FEA9616EC
:1017D00034BF00204FF000404FEAD13706FB07FC32
:1017E0004FEA1C4C0CFB0BF7D21B03FB0CF761EB15
:1017F00007010CFB0EF7B0EB074072EB17420CFB36
:1018000008F734BFA2EB0742B2EB074261EB174186
:101810004FEA0C444FEA910706FB07FC4FEA1C4CC9
:101820000CFB0BF7B0EBC74072EB573203FB0CF726
:1018300034BFA2EBC742B2EBC74261EB57310CFB9E
:101840000EF7B0EBC70072EB57720CFB08F734BF12
:10185000A2EBC702B2EBC70261EB5771039F4FEADD
:10186000816141EA921104EBCC044FEAD1374FEA8F
:10187000826206FB07FC42EA90124FEA80604FEA60
:101880001C4C0CFB0BF7D21B03FB0CF761EB0701A5
:101890000CFB0EF7B0EB074072EB17420CFB08F79E
:1018A00034BFA2EB0742B2EB074261EB17414FEAAC
:1018B0008C554FEA910704EB9C2406FB07FC4FEA8A
:1018C0001C4C0CFB0BF7B0EBC74072EB573203FB21
:1018D0000CF734BFA2EBC742B2EBC74261EB573102
:1018E0000CFB0EF7B0EBC70072EB57720CFB08F75E
:1018F00034BFA2EBC702B2EBC70261EB577115EB25
:101900004C254FEA816141EA92114FEA82624FEA27
:10191000D13742EA901206FB07FC44F100044FEA7B
:1019200080604FEA1C4C0CFB0BF7D21B03FB0CF73F
:1019300061EB07010CFB0EF7B0EB074072EB1742AF
:101940000CFB08F734BFA2EB0742B2EB074261EB96
:10195000174115EB1C154FEA813141EA92414FEADC
:10196000823242EA90424FEA80304FEA0C7644F1EC
:10197000000448EA03434EEA0B484FF0000EB2EB76
:10198000080C71EB030724BF624639464EEB0E0E7E
:101990004FF0000B0018524149414BEB0B0BB2EBDF
:1019A000080C71EB03077BF1000B24BF624639463C
:1019B0004EEB0E0E4FF0000B0018524149414BEB1D
:1019C0000B0BB2EB080C71EB03077BF1000B24BF90
:1019D000624639464EEB0E0E51EA020718BF46F03A
:1019E000010616EB0E7655F1000254F1000103D505
:1019F000BDE88901BDE80088BDE88901BDE800486F
:101A0000B619524141EB0101A3F1010370478080F7
:101A10007F7E7D7C7B7A7978777676757473727148
:101A200071706F6E6E6D6C6C6B6A6A696868676600
:101A300066656464636362616160605F5F5E5E5D92
:101A40005D5C5C5B5B5A5A59595858575756565506
:101A500055555454535352525251515050504F4F68
:101A60004F4E4E4D4D4D4C4C4C4B4B4B4A4A4A49B8
:101A700049494848484747474746464645454544FB
:101A80004444444343434342424242414141002B88
:101A90009C4630D477002BD01CB54FEA370703B4EF
:101AA0004FF010004FF01001BAF1000F06D0BCF15A
:101AB000000FDCBF40F0080040F008014FF00000CC
:101AC0000FBCBDE810400BF1010BBBF1010F08BFCB
:101AD0005FEA170722BF12F1010211F101014FF075
:101AE000004143F1000300F0004043EA000070476A
:101AF000F9D35708D0E746EA064613F1400F4FEAFC
:101B000016461FDD13F1200FDFBF16430A460021E2
:101B100020335B42BED0C3F1200746EA064602FAF4
:101B200007F74FEA164646EA0706C3F1200722FAEE
:101B300003F201FA07F721FA03F14FF0000342EA3A
:101B40000702A7E746EA020646EA06464FEA1646B5
:101B500046EA0106BCBF46EA0646360C4FF00003D3
:101B60004FF000024FF0000194E72DE9804C9A46B7
:101B7000934670B491E8380007C831EA400C48BF7A
:101B800034EA430C03D5FFF7E6FDFFF780FFF0BC16
:101B9000BDE8008C2DE9804C9A46934670B491E8DC
:101BA000380007C810F0804F08BF13F0804F03D1F2
:101BB00000F005F8FFF76BFFF0BCBDE8008C20F0EB
:101BC0007F4780EA030023F07F4C07EB0C03A3F56B
:101BD0007C5300F00040A3F1FE0392F0000F00F0F0
:101BE000B38095F0000F00F077802DE901494FEAAE
:101BF00011404FEA144621EA004800FB06FC24EAA3
:101C0000064708FB06F607FB08F800FB07F718EB8A
:101C100006484CEB164C4FEA124B18EB07484FEABC
:101C200015464CEB174022EA0B4E0BFB06FC25EA4F
:101C300006470EFB06F607FB0EFE0BFB07F71EEB37
:101C4000064E4CEB164C4FF000061EEB074E4CEBCD
:101C5000174B18EB0B0840F1000018EB0E0B58EB7C
:101C6000000840F100008F1A4FF000013CBFC9434B
:101C7000661B14BFB5EB040C00213CBFC943F61B27
:101C80004FEA17444EEA8E0E27EA04454FEA1C47F6
:101C900004FB07622CEA074C05FB07F70CFB05F673
:101CA00004FB0CFC16EB074642EB174216EB0C4606
:101CB00042EB1C421BEB060658EB0202414146EA8E
:101CC0009E0601D5BDE80189B619524141EB0101DB
:101CD000A3F10103BDE801894FEA14454FEA11471A
:101CE00024EA054621EA074C05FB07F406FB07F743
:101CF0000CFB06F105FB0CFC11EB074144EB174410
:101D00004FEA124711EB0C4144EB1C4422EA074C0A
:101D100005FB07F206FB07F70CFB06F605FB0CFCC0
:101D200016EB074642EB174216EB0C4642EB1C45FE
:101D30006A1854F1000148BF7047B619524141EB8F
:101D40000101A3F10103704795F0000F37D04FEA6E
:101D500011424FEA144721EA024624EA074C02FBEB
:101D600007F106FB07F70CFB06F402FB0CFC14EB77
:101D7000074441EB17414FEA154714EB0C4441EB84
:101D80001C4125EA074C02FB07F506FB07F70CFB95
:101D900006F602FB0CFC16EB074645EB174516EB67
:101DA0000C4645EB1C42121951F1000148BF704727
:101DB000B619524141EB0101A3F1010370474FEA0B
:101DC00014454FEA114724EA054621EA074C05FB72
:101DD00007F106FB07F70CFB06F24FF0000605FBC8
:101DE0000CFC12EB074241EB174112EB0C4251EB9A
:101DF0001C4148BF7047921841EB0101A3F1010358
:101E0000704738B50020009002F08AF80222694637
:101E1000A82000F0EFF804460CB1012038BD4FF4C3
:101E2000967005F081FC08208DF8000000208DF8E8
:101E3000010002226946E12000F0DCF804460CB102
:101E40000120EBE74FF4967005F06EFC0020E5E70B
:101E500070B505460E4602F043F9712002F006F90E
:101E600002F092F918B102F065F9012070BD00246A
:101E70000DE0701EA04204D1002002F0C1F82855E8
:101E800003E0012002F0BCF82855601CC4B2B44243
:101E9000EFDB02F04FF90020E8E7000010B52DED70
:101EA000088B84B0002400200390022203A9AC20F8
:101EB00000F0A0F804462CB1B7EE000A04B0BDEC67
:101EC000088B10BD062101A8FFF7C2FF044614B11C
:101ED000B7EE000AF2E79DF8051009039DF8062009
:101EE00041EA02119DF8072002F0F00241EA0200E7
:101EF0000AF0A4F841EC1B0B9FED0B0B53EC102BDD
:101F00000AF0B4F841EC1A0B9FED090B53EC102BBF
:101F100009F03CFF41EC190B09F05EFE08EE100AD7
:101F2000B0EE480ACAE70000000000000000594077
:101F3000000000000000304110B52DED0A8B84B088
:101F4000002400200390022203A9AC2000F052F8E4
:101F500004462CB1B7EE000A04B000F045B810BD3D
:101F6000062101A8FFF774FF044614B1B7EE000A7A
:101F7000F2E79DF807100907090B9DF8082041EAD0
:101F800002219DF8092041EA02000AF057F841ECCD
:101F90001C0B9FED0F0B53EC102B0AF067F841EC74
:101FA0001B0B9FED0D0B53EC102B09F0EFFE41ECDA
:101FB0001A0B9FED0B0B53EC102B0AF055F941EC6B
:101FC000190B09F009FE08EE100AB0EE480AC3E743
:101FD00000000000000069400000000000003041E7
:101FE0000000000000004940BDEC088BBDEC02CBB6
:101FF000FFF7B5BF2DE9F04107460D46164602F042
:102000006FF8702002F032F802F0BEF820B102F052
:1020100091F80120BDE8F081384602F027F802F07F
:10202000B3F8002406E0285D02F020F802F0ACF8D6
:10203000601CC4B2B442F6DB02F07CF80020E9E791
:1020400000B587B000BF0F48C06C40F002000D49DA
:10205000C8640846C06C00F00200019000BF00BFD9
:10206000042002900120039002200490059002A910
:10207000054800F0E9F800220421034800F0F2F9D5
:1020800007B000BD001002400004004800BFFEE79A
:102090007047000038B504460D4604485223F0222C
:1020A00029460090204602F0E3FD38BD38110108B2
:1020B0002DE9F05F8246884614462046E21704EB7D
:1020C0005272D2102146E31704EB5373DB10A4EBDA
:1020D000C3030BB1012300E000231A44624302F062
:1020E000FF099AF800600AF1010082460578812E06
:1020F00005DB402D03DBFF2D01D0FF2E0DD14FF06E
:10210000000B06E0002008F8010B0BF1010000F0C5
:10211000FF0BCB45F6DB00F043B87F2D03DAA5F1CA
:102120004000C5B202E0A5F14100C5B2A6F18100B0
:10213000C6B2BE2010FB065000FB09F70C2C06D0DF
:10214000102C0DD0182C14D0202C24D11AE01348B8
:10215000D0F80900C1194A46404604F01DFB1AE0B8
:102160000E48D0F81100C1194A46404604F014FB4D
:1021700011E00A48D0F81900C1194A46404604F057
:102180000BFB08E00548D0F82100C1194A4640463B
:1021900004F002FB00BF00BF00BFBCE74C280120D9
:1021A00030BCBDE8C09F0146002209B9012070473C
:1021B0000868006820F00E000B6818600868006866
:1021C00020F001000B68186091F8440000F01C0337
:1021D000012098400B6C5860012081F8250000BF59
:1021E000002081F8240000BF1046E0E770B50446E7
:1021F000002594F82500022803D00420E06301257F
:1022000020E02068006820F00E0021680860206847
:10221000006820F001002168086094F8440000F094
:102220001C0101208840216C4860012084F82500B1
:1022300000BF002084F8240000BFA06B10B120462E
:10224000A16B8847284670BD78B503460022E5E0BB
:10225000012696400D6805EA0604002C7DD04D68E5
:10226000022D02D04D68122D13D1D60803F120059E
:1022700055F826005507EE0E0F25B540A843560722
:10228000F60E0D69B5402843D60803F1200545F840
:102290002600186856000325B540A8430D7905F0BF
:1022A00003055600B540284318604D68012D08D03D
:1022B0004D68022D05D04D68112D02D04D68122DAC
:1022C00013D1986856000325B540A8435600CD6841
:1022D000B54028439860586801259540A8430D797A
:1022E000C5F300159540284358600D7905F00305A6
:1022F000032D09D1D86A01259540A8430D79C5F36E
:10230000C00595402843D862D86856000325B540DB
:10231000A84356008D68B5402843D8604D6805F045
:102320008055B5F1805F78D100BF3F4D2D6E45F0EF
:1023300001053D4E356635462D6E05F001050095CB
:1023400000BF00BF4FEAB635960855F8260095073E
:102350002E0F0F25B540A84300E05EE0B3F1904F8B
:1023600001D100251EE0314DAB4201D1012519E01C
:102370002F4DAB4201D1022514E02E4DAB4201D1CD
:1023800003250FE02C4DAB4201D104250AE02B4D73
:10239000AB4201D1052505E0294DAB4201D106250F
:1023A00000E007259607360FB5402843254D9608CF
:1023B00045F82600244D2868A0434D6805F4803573
:1023C000B5F5803F00D120431F4D28602D1D2868A2
:1023D000A0434D6805F40035B5F5003F00D120431A
:1023E000194D2D1D28602D1D2868A0434D6805F44A
:1023F0008015B5F5801F00D12043134D08352860A6
:102400002D1D2868A0434D6805F40015B5F5001F83
:1024100000D120430C4D0C352860521C0D68D5406E
:10242000002D7FF415AF78BD001002400004004875
:1024300000080048000C0048001000480014004844
:1024400000180048080001400004014002461369DA
:102450000B400BB1012000E00020704742694A4068
:10246000426170470AB1816100E0816270470000FB
:10247000014800687047000004000020024800681E
:10248000401C0149086070470400002010B500247A
:10249000052000F073F8002000F008F808B10124CE
:1024A00001E000F01BF8204610BD000070B50446A6
:1024B0000025094800684FF47A71B0FBF1F6304608
:1024C00001F053FA08B1012504E000222146501E14
:1024D00000F012F8284670BD00000020704700BFD1
:1024E00000F01F02012191404209920002F1E02216
:1024F000C2F8001100BF70472DE9F05F80460D461D
:102500001646002702F098FC074639462A4633460D
:1025100001F00700C0F1070ABAF1040F02D94FF029
:10252000040A01E0C0F1070AD14600F1040ABAF139
:10253000070F02D24FF0000A01E0A0F1030AD446CF
:102540004FF0010A0AFA09FAAAF1010A0AEA020A94
:102550000AFA0CFA4FF0010B0BFA0CFBABF1010B72
:102560000BEA030B4AEA0B042146404602F06CFCDE
:1025700000F000B830BCBDE8C09F000000BF00F014
:102580000702064B19684FF6FF031940044B0B4333
:1025900043EA0221014B196000BF70470CED00E0D7
:1025A0000000FA050246B2F5007F2AD11D480068F6
:1025B00000F4C060B0F5007F32D01A48006820F403
:1025C000C06040F40070174B186017480068322351
:1025D0005843164BB0FBF3F0411C00E0491E114874
:1025E000406900F48060B0F5806F01D10029F5D119
:1025F0000C48406900F48060B0F5806F10D1032072
:1026000070470848006800F4C060B0F5806F07D0DC
:102610000448006820F4C06040F48060014B1860FA
:102620000020EDE7007000400000002040420F0055
:102630000248006800F4C06070470000007000406D
:10264000F8B504460025FFF713FF064694F8390055
:1026500000F0020000283ED000BF002084F83800BF
:1026600000BF2068006800F0040070B120680068B6
:1026700020F0040021680860606BFFF794FD0546B8
:102680001DB1E06B40F00400E0632068006840F09A
:10269000020021680860206C33460122022100906C
:1026A000204602F04DFD05465DB902202168C86054
:1026B000206C3346002220210090204602F040FD8D
:1026C000054645B92068406920F0406021684861AE
:1026D000012084F839002846F8BD2DE9F843044666
:1026E0000D461746FFF7C4FE8046A86900B100BF3B
:1026F000E86900B100BF286A00B100BF00BF94F8CC
:102700003800012802D10220BDE8F883012084F8B6
:10271000380000BF94F83900012828D10020E06378
:10272000022084F8390043460022202120460097E9
:1027300002F006FD0646DEB900222946204602F0D8
:1027400098FB686A78B94346012202212046009727
:1027500002F0F6FC06465EB902202168C86001203E
:1027600084F8390004E0012084F8390000E00226F2
:1027700000BF002084F8380000BF3046C4E70000E6
:10278000F8B50446FFF774FE06460CB90120F8BD03
:1027900000BF94F83800012801D10220F7E701209A
:1027A00084F8380000BF94F8390050B9002084F84C
:1027B0003800204600F048F841F28831204600F009
:1027C000F0F82068006820F47061A068401E41EABB
:1027D000002021680860206C3346002220210090F0
:1027E000204602F0ADFC054615BB2179E06840EAC1
:1027F000016021680968124A114008432168086095
:10280000208A616941EA0040A1690843216849685A
:102810000C4A11400843216848602068006840F075
:102820000100216808600020E063012084F839007D
:1028300000BF002084F8380000BF2846A7E700004A
:10284000EFFFFF00FEF8E0FF10B586B0044600BFC2
:102850001548006D40F48070134908650846006D06
:1028600000F48070009000BF00BF00BF0846C06C3D
:1028700040F01000C8640846C06C00F010000090E2
:1028800000BF00BF4FF47C40019002200290002066
:102890000390032004900A20059001A90348FFF744
:1028A000D3FC06B010BD000000100240001000482C
:1028B0002DE9F84F04460E4617460025FFF7D8FDD0
:1028C00080462068D0F81890206800F1200A00BFE8
:1028D00094F83800012802D1022000F05FB80120EE
:1028E00084F8380000BF94F8390001284ED1002048
:1028F000E063002E44D0222084F83900206800696B
:10290000401C206320680069401CE062A6622068C9
:10291000406920F0406040F0806021684861206894
:10292000C0F8189013E04346012206212046009784
:1029300002F006FC054605B10CE09AF80000A16A19
:102940000870A06A401CA062206B401E2063206BB0
:102950000028E8D100BF7DB943460122022120466C
:10296000009702F0EDFB054635B902202168C860EA
:102970002046FFF765FE0546012084F8390006E091
:10298000E06B40F00800E063012500E0022500BF95
:10299000002084F8380000BF28469EE718BCBDE838
:1029A000E08F016470472DE9F84304460E46174650
:1029B0000025FFF75DFD8046206800F1200900BF7B
:1029C00094F83800012802D10220BDE8F8830120E4
:1029D00084F8380000BF94F83900012849D100205C
:1029E000E063002E3FD0122084F83900206800698F
:1029F000401C606220680069401C2062E66120681B
:102A0000406920F040602168486113E0434601229C
:102A100004212046009702F093FB054605B10CE027
:102A2000E069007889F80000E069401CE061606AB4
:102A3000401E6062606A0028E8D100BF7DB943464D
:102A4000012202212046009702F07AFB054635B9A3
:102A500002202168C8602046FFF7F2FD05460120EC
:102A600084F8390006E0E06B40F00800E0630125DF
:102A700000E0022500BF002084F8380000BF28468F
:102A8000A3E700002DE9F04104460D4614B90120EA
:102A9000BDE8F0815548006800F00700A8420ED25A
:102AA0005248006820F00700284350490860084653
:102AB000006800F00700A84201D00120E8E7207874
:102AC00000F00100002840D06068032806D1484883
:102AD000006800F00070D8B90120D9E760680228CA
:102AE00006D14348006800F4003088B90120CFE7E0
:102AF000606830B93E48006800F0020040B901202B
:102B0000C6E73B48006800F4806008B90120BFE7D1
:102B10003748806820F003006168084334498860C2
:102B2000FFF7A6FC064608E0FFF7A2FC801B41F277
:102B30008831884201D90320AAE72D48806800F037
:102B40000C006168B0EB810FEED1207800F002003C
:102B5000022807D12648806820F0F000A1680843C9
:102B6000234988602148006800F00700A8420ED978
:102B70001E48006820F0070028431C4908600846EA
:102B8000006800F00700A84201D0012080E720780B
:102B900000F00400042807D11548806820F4E060A4
:102BA000E168084312498860207800F0080008288E
:102BB00008D10F48806820F46050216940EAC100C4
:102BC0000B49886000F044F809498968C1F3031192
:102BD000084A515C01F01F01C84007490860002005
:102BE000FFF764FC0746384652E700000020024029
:102BF000001002403CC500080000002001480068A9
:102C0000704700000000002000B5FFF7F7FF0549FE
:102C10008968C1F30221044A515C01F01F01C840D8
:102C200000BD0000001002404CC5000800B5FFF7D1
:102C3000E5FF05498968C1F3C221044A515C01F0EE
:102C40001F01C84000BD0000001002404CC5000834
:102C50002DE9F04100240020DFF800C1DCF808C0B5
:102C60000CF00C01DFF8F4C0DCF80CC00CF003072A
:102C700019B10C291ED1012F1CD1DFF8E0C0DCF8FE
:102C800000C00CF0080CBCF1000F06D1DFF8CCC07E
:102C9000DCF894C0CCF3032405E0DFF8C0C0DCF816
:102CA00000C0CCF30314DFF8B8C05CF8244041B98D
:102CB000204606E0042901D12A4802E0082900D173
:102CC00029480C2947D1DFF894C0DCF80CC00CF07F
:102CD0000305DFF888C0DCF80CC0CCF3021C0CF153
:102CE0000103012D1FD0022D02D0032D1AD10CE0BB
:102CF000DFF870C0BCFBF3FCDFF86080D8F80C8014
:102D0000C8F306280CFB08F218E0DFF85CC0BCFB37
:102D1000F3FCDFF84880D8F80C80C8F306280CFBD9
:102D200008F20BE000BFB4FBF3FCDFF83080D8F80A
:102D30000C80C8F306280CFB08F200BF00BFDFF8C8
:102D40001CC0DCF80CC0CCF3416C0CF1010C4FEA58
:102D50004C06B2FBF6F0BDE8F08100000010024026
:102D600054C500080024F40000127A002DE9F8434D
:102D7000044614B90120BDE8F883F848806800F0E3
:102D80000C06F648C06800F00307207800F0100039
:102D9000102875D11EB10C2E74D1012F72D1EF48BD
:102DA000006800F0020018B1A06908B90120E2E74C
:102DB000EA48216A006800F0080020B1E74800688E
:102DC00000F0F00005E0E5489430006800F4706021
:102DD000000981421FD9206A02F0D8F908B1012008
:102DE000C9E700BFDD48006840F00800DB49086023
:102DF0000846006820F0F000216A0843D7490860BF
:102E000000BF0846406820F47F40E16940EA0120A5
:102E1000D24948601EE000BFD048006840F008007A
:102E2000CE4908600846006820F0F000216A084397
:102E3000CA49086000BF0846406820F47F40E16945
:102E400040EA0120C5494860206A02F09FF908B1B4
:102E5000012090E7FFF7FCFEC0498968C1F3031128
:102E6000BF4A515C01F01F01C840BE490860002004
:102E7000FFF71CFB8046B8F1000F4ED040467AE7C2
:102E80004BE0FFE7A06980B3B448006840F0010060
:102E9000B2490860FFF7ECFA054606E0FFF7E8FAEA
:102EA000401B022801D9032065E7AC48006800F008
:102EB00002000028F2D000BFA848006840F00800D7
:102EC000A64908600846006820F0F000216A08431F
:102ED000A249086000BF0846406820F47F40E169CD
:102EE00040EA01209D49486017E0FFE79B480068E1
:102EF00020F0010099490860FFF7BAFA054606E09C
:102F0000FFF7B6FA401B022801D9032033E79348A4
:102F1000006800F002000028F2D1207800F00100E3
:102F200000285CD0082E03D00C2E0AD1032F08D124
:102F30008A48006800F4003088B3606878BB0120DC
:102F400019E700BF6068B0F5803F06D1834800688C
:102F500040F48030814908601AE06068B0F5A02F25
:102F60000BD17E48006840F480207C490860084608
:102F7000006840F4803008600AE07848006820F477
:102F80008030764908600846006820F48020086098
:102F900000BF606890B1FFF76BFA054607E01EE0DE
:102FA000FFF766FA401B642801D90320E3E66B486B
:102FB000006800F400300028F2D010E0FFF758FA63
:102FC000054606E0FFF754FA401B642801D90320A8
:102FD000D1E66248006800F400300028F2D1207881
:102FE00000F00200022852D1042E03D00C2E14D17E
:102FF000022F12D15948006800F4806018B1E068CF
:1030000008B90120B7E65548406820F0F850217C07
:1030100040EA01605149486039E0E06800B34F4838
:10302000006840F480704D490860FFF721FA0546BA
:1030300006E0FFF71DFA401B022801D903209AE69B
:103040004648006800F480600028F2D04348406899
:1030500020F0F850217C40EA01604049486016E0C9
:103060003E48006820F480703C490860FFF700FA91
:10307000054606E0FFF7FCF9401B022801D90320B2
:1030800079E63648006800F480600028F2D12078A4
:1030900000F00800082836D16069D0B12F4894307C
:1030A000006840F001002D49C1F89400FFF7E0F9F5
:1030B000054606E0FFF7DCF9401B022801D9032092
:1030C00059E626489430006800F002000028F1D04C
:1030D00019E022489430006820F001001F49C1F82F
:1030E0009400FFF7C5F9054606E0FFF7C1F9401B5C
:1030F000022801D903203EE618489430006800F009
:1031000002000028F1D1207800F00400042870D1DA
:103110004FF000091148806D00F0805078B900BF71
:103120000E48806D40F080500C4988650846806DDF
:1031300000F08050009000BF00BF4FF001090A4826
:10314000006800F48070F0B90748006840F48070AF
:1031500005490860FFF78CF905460EE000100240B3
:103160003CC500080000002000700040FFF780F917
:10317000401B022801D90320FDE57C48006800F4CB
:1031800080700028F2D000BFA068012808D17848DC
:10319000006840F0010076499039C1F8900021E0C4
:1031A000A06805280FD17248006840F004007049FB
:1031B0009039C1F890000846D0F8900040F0010026
:1031C000C1F890000EE06A48006820F001006849EC
:1031D0009039C1F890000846D0F8900020F0040023
:1031E000C1F8900000BFA068A0B1FFF741F9054603
:1031F00009E02EE0FFF73CF9401B41F2883188429C
:1032000001D90320B7E55A48006800F00200002801
:10321000F0D012E0FFF72CF9054608E0FFF728F997
:10322000401B41F28831884201D90320A3E5504870
:10323000006800F002000028F0D1B9F1010F07D1B9
:103240004B489038806D20F080504949903988650E
:1032500000BFA06AF0B30C2E74D0A06A022853D12C
:1032600043489038006820F08070414990390860E8
:10327000FFF7FEF8054606E0FFF7FAF8401B0228C4
:1032800001D9032077E53A489038006800F00070D3
:103290000028F1D1206B401E0101606B41EA002142
:1032A000A06B000941EA4040E16A0843A18F012276
:1032B000C2EB510140EA41514020005DC2EB500099
:1032C00041EA40602A499039C8600846006840F0E9
:1032D000807000E048E008600846C06840F08070F8
:1032E000C860FFF7C5F8054606E0FFF7C1F8401BC8
:1032F000022801D903203EE51D489038006800F0FF
:1033000000700028F1D02FE019489038006820F0B4
:1033100080701749903908600846006800F0205016
:1033200020B90846C06820F00300C86010489038F3
:10333000C068104908400E499039C860FFF798F8F6
:10334000054607E00EE0FFF793F8401B022801D97D
:10335000032010E506489038006800F0007000284F
:10336000F1D101E0012006E5002004E500700040F5
:1033700090100240FFFFEEFE70B504460CB901202C
:1033800070BD606A00B900BF0021A16294F85D00C1
:1033900028B9002084F85C00204600F04DF8022097
:1033A00084F85D002068006820F040002168086013
:1033B000E068B0F5E06F01D9002501E04FF48055D9
:1033C000E068B0F5706F05D0E068B0F5E06F01D04F
:1033D0000021A162206B40B9E068B0F5E06F02D92E
:1033E0000221216301E001212163D4E901010843A5
:1033F0002169084361690843218B01F40071084386
:10340000E1690843216A0843A16A0843216808600A
:103410000421A06901EA1040616A0843616B084316
:10342000E1680843284321684860002020660120A5
:1034300084F85D000020A3E710B586B0044600BF05
:103440001448C06C40F002001249C8640846C06CC1
:1034500000F00200009000BF00BF00BF0846806D72
:1034600040F4004088650846806D00F400400090FC
:1034700000BF00BF2820019002200290012003908D
:10348000032004900620059001A90348FEF7DCFE06
:1034900006B010BD00100240000400482DE9F84FAE
:1034A0000446884616461D464FF0000A00BF94F8B1
:1034B0005C00012802D1022000F0DFB8012084F86E
:1034C0005C0000BFFEF7D4FF0746B14694F85D00EC
:1034D000012802D04FF0020AC5E0B8F1000F00D079
:1034E00016B94FF0010ABEE0032084F85D00002009
:1034F0002066C4F83880A687E6872064A4F84400D4
:10350000A4F846002065E064A068B0F5004F05D13E
:103510002068006840F480402168086020680068E6
:1035200000F04000402805D02068006840F04000CE
:1035300021680860E068B0F5E06F2FD9606810B1CD
:10354000B9F1010F09D1A06B00882168C860A06B98
:10355000801CA063E08F401EE0871BE0206880682D
:1035600000F0020002280AD1A06B00882168C86020
:10357000A06B801CA063E08F401EE0870AE0FEF78E
:1035800077FFC01BA84201D3681C00B915B94FF0E2
:10359000030A68E0E08F0028E0D14AE0606810B1DB
:1035A000B9F1010F17D1E08F01280AD9A06B00886B
:1035B0002168C860A06B801CA063E08F801EE0873C
:1035C00009E0A06B007821680873A06B401CA06321
:1035D000E08F401EE08729E02068806800F002004C
:1035E000022818D1E08F01280AD9A06B0088216831
:1035F000C860A06B801CA063E08F801EE08715E090
:10360000A06B007821680873A06B401CA063E08F5A
:10361000401EE0870AE0FEF72BFFC01BA84201D343
:10362000681C00B915B94FF0030A1CE0E08F0028B0
:10363000D2D13A462946204602F034F908B120207A
:103640002066A06850B900BF002000902068C068C4
:10365000009020688068009000BF00BF206E08B115
:103660004FF0010A00BF012084F85D0000BF002078
:1036700084F85C0000BF50461EE718BCBDE8E08F30
:103680002DE9FF5F0446894692461D460E9E0120A5
:1036900001900020009000BF94F85C00012803D145
:1036A000022004B000F04AB9012084F85C0000BF99
:1036B000FEF7DEFE074694F85D0002906068039016
:1036C000A846AB46029801280BD00398B0F5827F3C
:1036D00004D1A06810B90298042802D002200090FA
:1036E00022E1B9F1000F03D0BAF1000F00D015B9F3
:1036F0000120009018E194F85D00042802D0052014
:1037000084F85D0000202066C4F840A0A4F846506C
:10371000A4F84450C4F83890E587A587E064206594
:10372000E068B0F5E06F02D8BBF1010F06D9206860
:10373000406820F480502168486005E020684068B7
:1037400040F48050216848602068006800F0400024
:10375000402805D02068006840F0400021680860DB
:10376000E068B0F5E06F4ED9606810B1B8F1010FB4
:1037700009D1A06B00882168C860A06B801CA06381
:10378000E08F401EE08736E02068806800F002008D
:10379000022810D1E08F70B1019801280BD1A06BE5
:1037A00000882168C860A06B801CA063E08F401E69
:1037B000E087002001902068806800F0010080B15F
:1037C000B4F8460068B12068C068216C0880206C9D
:1037D000801C2064B4F84600401EA4F84600012076
:1037E0000190FEF745FEC01BB04204D3701C10B11F
:1037F0000320009098E0E08F0028C5D1B4F846007F
:103800000028C1D185E0606810B1B8F1010F17D16F
:10381000E08F01280AD9A06B00882168C860A06BDE
:10382000801CA063E08F801EE08709E0A06B007819
:1038300021680873A06B401CA063E08F401EE087E6
:1038400060E02068806800F0020002281ED1E08F4E
:10385000E0B10198012819D1E08F01280AD9A06BA5
:1038600000882168C860A06B801CA063E08F801E68
:10387000E08709E0A06B007821680873A06B401C0A
:10388000A063E08F401EE0870020019020688068E0
:1038900000F0010058B3B4F8460040B3B4F8460055
:1038A000012816D92068C068216C0880206C801C13
:1038B0002064B4F84600801EA4F84600B4F8460020
:1038C000012812D82068406840F480502168486080
:1038D0000BE02068007B216C0870206C401C206489
:1038E000B4F84600401EA4F8460001200190FEF7FF
:1038F000BFFDC01BB04201D3701C00B916B9032034
:10390000009011E0E08F00289BD1B4F84600002819
:1039100097D13A463146204601F0C4FF18B1012044
:1039200000902020206600BF012084F85D0000BFC9
:10393000002084F85C0000BF0098B2E630BCBDE80F
:10394000C09F042808D14FF0E021096941F004012B
:103950004FF0E022116107E04FF0E021096921F00A
:1039600004014FF0E0221161704770B5044625460E
:10397000681EB0F1807F01D301200FE0681E4FF078
:10398000E02148610F214FF0FF3001F05DFA002087
:103990004FF0E021886107200861002070BD10B55C
:1039A00004460CB9012010BD94F83D0028B9002050
:1039B00084F83C00204600F00DF8022084F83D0019
:1039C000211D206802F03AFA012084F83D00002011
:1039D000E9E7000038B504460D492068884215D152
:1039E00000BF0C48806D40F002000A498865084617
:1039F000806D00F00200009000BF00BF0322012193
:103A00001D20FEF779FD1D20FEF769FD38BD000081
:103A1000000400400010024001460868C06840F001
:103A200001000A68D060086880680B4A10400628C8
:103A300005D0086880681040B0F5803F01D10120B2
:103A400000E0002028B90868006840F001000A681A
:103A500010600020704700000700010070477047A9
:103A60002DE9F04104462068C56920680668206891
:103A7000876805F00F08B8F1000F0CD105F02000A1
:103A800048B106F0200030B1206E10B12046216E02
:103A90008847BDE8F081B8F1000F7FD007F0010042
:103AA00018B906F49070002878D005F0010048B1EC
:103AB00006F4807030B1012021680862606F40F028
:103AC0000100606705F0020048B107F0010030B165
:103AD000022021680862606F40F00400606705F012
:103AE000040048B107F0010030B1042021680862E9
:103AF000606F40F00200606705F0080060B106F0FA
:103B0000200010B907F0010030B1082021680862D8
:103B1000606F40F008006067606F78B305F02000C8
:103B200038B106F0200020B1206E10B12046216E81
:103B30008847606F00F0080028B92068806800F0AE
:103B40004000402824D1204602F0CEFA2068806848
:103B500000F04000402817D12068806820F0400025
:103B600021688860E06E58B11F48E16E8863E06E9E
:103B7000FEF73CFB10B1E06E816B88470DE00DE075
:103B80002046FFF76CFF08E02046FFF768FF04E0DF
:103B90002046FFF764FF002060677AE705F4801095
:103BA00050B107F4800038B14FF4801021680862EA
:103BB0002046FFF753FF6CE705F0800040B106F0A8
:103BC000800028B1606E10B12046616E884760E7C2
:103BD00005F0400030B106F0400018B1204602F078
:103BE00095FA56E700BF54E7D160000810B50446C7
:103BF0000CB9012010BDA06900B100E000BF94F82D
:103C0000710028B9002084F87000204600F02AF8DE
:103C1000242084F871002068006820F001002168E9
:103C20000860204602F084FA012800D1E2E7606AC9
:103C300010B1204602F096F92068406820F49040C8
:103C4000216848602068806820F02A002168886028
:103C50002068006840F0010021680860204602F0FA
:103C6000FDF9C7E710B58CB0044649492068884281
:103C700031D100BF4748C06C40F001004549C864DD
:103C80000846C06C00F00100069000BF00BF00BFF6
:103C90000846006E40F4804008660846006E00F456
:103CA0008040069000BF00BF481507900220089092
:103CB0000120099002200A9007200B9007A94FF0DD
:103CC0009040FEF7C1FA4FF48060079007A94FF0CB
:103CD0009040FEF7B9FA2520FEF701FC03221146B9
:103CE0002520FEF709FC2C49206888424ED100BFF0
:103CF0002848C06C40F001002649C8640846C06CE2
:103D000000F00100019000BF00BF00BF0846806DB9
:103D100040F4003088650846806D00F40030019062
:103D200000BF00BF042002900220039001200490F5
:103D3000022005900720069002A94FF09040FEF760
:103D400083FA0820029002A94FF09040FEF77CFA17
:103D50002068006840F02000216808602620FEF7F7
:103D6000BEFB032202212620FEF7C6FB42F2CF0152
:103D700040F2E73002F02AF800200849088008489D
:103D8000006820F001000649086000BF0CB010BDBB
:103D9000003801400010024000440040DC010020D7
:103DA000000400402DE9F84F04460D46164699469A
:103DB0004FF0000A94F87200202879D105B116B9A5
:103DC000012000F077B800BF94F87000012801D1FD
:103DD0000220F6E7012084F8700000BF002058346C
:103DE000E0612220A076FEF743FB824626806680B3
:103DF000583C00BFA068B0F5805F0AD1206920B9A7
:103E000040F2FF10A4F85C001CE0FF20A4F85C0066
:103E100018E0A06848B9206918B9FF20A4F85C0030
:103E200010E07F20A4F85C000CE0A068B0F1805F97
:103E300008D1206918B97F20A4F85C0002E03F2077
:103E4000A4F85C0000BFB4F85C7023E05346002285
:103E500020212046CDF8009002F0B3FB08B10320EA
:103E6000AFE7A068B0F5805F09D1206938B9A846EE
:103E70002068808C3840A8F80000AD1C05E0206860
:103E8000808CF9B2084005F8010BB4F85A00401EC6
:103E9000A4F85A00B4F85A000028D7D1202084F89A
:103EA000720000BF002084F8700000BF89E7FFE7C0
:103EB000022086E718BCBDE8E08F704700BFFEE730
:103EC00010B5002240211148FEF7CCFA10480068D6
:103ED00020F00C000E4908600846006840F004001D
:103EE0000860002202210A48FEF7BCFA00F012F82E
:103EF000012240210548FEF7B5FA00F00BF8002238
:103F000040210248FEF7AEFA10BD0000000C004848
:103F10000008004810B5642003F012FC10BD00003A
:103F200000B587B000BF1E48C06C40F004001C49BB
:103F3000C8640846C06C00F00400019000BF00BFD8
:103F400000BF0846C06C40F00800C8640846C06C5A
:103F500000F00800019000BF00BF02200290012085
:103F6000039004900220059002A90E48FEF76CF918
:103F7000402002900120039004900220059002A9A5
:103F80000948FEF761F9012202210648FEF76AFAA4
:103F9000012240210448FEF765FA07B000BD000089
:103FA0000010024000080048000C004810B5002234
:103FB00040211148FEF756FA1048006820F00C0026
:103FC0000E4908600846006840F0040008600122BD
:103FD00002210A48FEF746FAFFF79CFF0122402122
:103FE0000548FEF73FFAFFF795FF002240210248FF
:103FF000FEF738FA10BD0000000C00480008004829
:1040000070B5054600241748006820F00C001549DB
:104010000860084600680860002618E00022402179
:104020001148FEF71FFAFFF775FF012240210E48E5
:10403000FEF718FA6006040E02210A48FEF706FA97
:1040400008B1601CC4B2FFF765FF701CC6B2082E31
:10405000E4DB15B9FFF7AAFF01E0FFF731FF2046C7
:1040600070BD000000080048000C004870B5044610
:104070001948006820F00C001749086008460068DD
:1040800040F004000860002240211448FEF7EAF9DD
:1040900000251EE0E00928B1012202210E48FEF7AA
:1040A000E1F904E0002202210B48FEF7DBF960068B
:1040B000040E012240210948FEF7D4F9FFF72AFF38
:1040C000002240210548FEF7CDF9FFF723FF681CC9
:1040D000C5B2082DDEDB70BD00080048000C0048AA
:1040E00010B51248006820F00C001049086008461E
:1040F000006840F004000860012202210B48FEF72E
:10410000B1F9012240210A48FEF7ACF9FFF702FF9E
:10411000002202210548FEF7A5F9FFF7FBFE002269
:1041200040210348FEF79EF910BD0000000800483A
:10413000000C004810B51248006820F00C0010492F
:1041400008600846006840F0040008600022022170
:104150000B48FEF787F9012240210A48FEF782F951
:10416000FFF7D8FE012202210548FEF77BF9FFF791
:10417000D1FE002240210348FEF774F910BD000073
:1041800000080048000C004810B5002416480068DC
:1041900020F00C00144908600846006808600122FD
:1041A00002211148FEF75EF9FFF7B4FE012240211B
:1041B0000E48FEF757F9FFF7ADFE07E0601CC4B2EA
:1041C000FA2C03DDFFF7B6FF012010BD02210648DF
:1041D000FEF73CF90028F1D1002240210348FEF708
:1041E00041F90020F1E7000000080048000C0048F9
:1041F00000B587B000BF1B48C06C40F004001949EF
:10420000C8640846C06C00F00400019000BF00BF05
:1042100000BF0846C06C40F00800C8640846C06C87
:1042200000F00800019000BF00BF4FF4E060029072
:1042300000200390022004900320059002A90A4860
:10424000FEF702F84FF40050029000200390012086
:1042500004900320059002A90448FDF7F5FF07B07C
:1042600000BD000000100240000C0048000800489B
:1042700010B50446012C01D131490870304800784E
:1042800000283FD04FF480612E48FEF7DFF890B150
:104290004FF400712B48FEF7D9F860B14FF48071EC
:1042A0002848FEF7D3F830B14FF400512648FEF706
:1042B000CDF8012826D10A2003F036FA0020204943
:1042C00008704FF480611F48FEF7C0F808B901205C
:1042D00010BD4FF400711B48FEF7B8F808B9022072
:1042E000F6E74FF480711748FEF7B0F808B90320DD
:1042F000EEE74FF400511448FEF7A8F801281CD14E
:104300000420E5E74FF480610E48FEF79FF801288E
:1043100013D141020B48FEF799F801280DD1010293
:104320000848FEF793F8012807D141030648FEF735
:104330008DF810B90120024908700020C8E700007C
:1043400008000020000C0048000800482DE9F0415A
:1043500004460D4616461F462A2000F00FFD201287
:1043600000F01AFDE0B200F017FD301200F014FD6D
:10437000F0B200F011FD2B2000F000FD281200F03B
:104380000BFDE8B200F008FD381200F005FDF8B2B0
:1043900000F002FD2C2000F0F1FCBDE8F0810000EF
:1043A000F8B505460020009028128DF80000E8B20C
:1043B0008DF80100EF231A4600210846FFF7C6FFDB
:1043C00000240DE09DF800000F4901F814009DF84D
:1043D0000100012101EB44010B4A5054601C84B2DE
:1043E000B4F5107FEEDB012210210848FEF73AF801
:1043F000002606E04FF49061034800F0ACFA701C10
:1044000086B2642EF6DBF8BD680200200004004886
:104410002DE9FF4F87B0074688469146002005905A
:10442000049001900A9880452ED14A46414638466C
:104430000A9BFFF78BFF002001900FE03A480088AD
:1044400001123A4A019802F8101037480178019891
:104450004000401C11540198401C0190A9EB070139
:1044600001988142EAD8012210213148FDF7FAFF74
:10447000A9EB07004FF6FF7202EA40012B4800F05B
:104480006AFA0BB000F056B8A9EB07040A98A0EB43
:1044900008050397CDF80880002C02DD4FF0010AD3
:1044A00006E014B94FF0000A02E04FF0FF3A644210
:1044B000002D02DD4FF0010B06E015B94FF0000BA7
:1044C00002E04FF0FF3B6D42AC4201DD264600E0CA
:1044D0002E460020069021E0029A91B2039A90B2F3
:1044E00000F0A4F80598204405900498284404900E
:1044F0000598B04205DD0598801B0590039850444F
:1045000003900498B04205DD0498801B0490029843
:10451000584402900698401C80B20690711C069880
:104520008842D9DD00BFACE70A0000206802002005
:104530000004004830BCBDE8C08F2DE9F0410446BE
:104540000D4616461F462B46324629462046FFF7A3
:104550005FFF3B46224629462046FFF759FF3B4670
:10456000324639462046FFF753FF3B46324629463E
:104570003046FFF74DFFBDE8F0812DE9F0470646D4
:104580000F469046002445460320A0EB480948E02A
:104590003A1B91B2721B90B200F048F83A1B91B2EC
:1045A000721990B200F042F87A1991B2321B90B2AF
:1045B00000F03CF83A1B91B2721B90B200F036F852
:1045C0007A1B91B2321B90B200F030F83A1991B2D6
:1045D000721990B200F02AF87A1B91B2321990B297
:1045E00000F024F87A1991B2321990B200F01EF856
:1045F0003A1991B2721B90B200F018F8641CB9F12C
:10460000000F03DAA000801D814404E0601B8000DD
:104610000A3081446D1E7A1991B2321990B200F0BD
:1046200005F8AC42B4DDBDE8F087000070B5044683
:104630000D462B46224629462046FFF787FE0248B4
:10464000008800F0B7FB70BD0A0000202DE9F05F84
:104650000746884691469A46DDF828B00024002592
:104660000026A9EB0700401CAAEB0801491C48439F
:104670004500B5F5906F03D9A5F590664FF49065A8
:1046800053464A4641463846FFF760FE22E0002482
:104690000AE04FEA2B20114A02F814006000401C87
:1046A00002F800B0601C84B2B4EB550FF1D30122C4
:1046B00010210B48FDF7D6FEA9B2084800F04BF9CF
:1046C00006B908E0B6F5906F02D9A6F5906601E04C
:1046D00035460026DBE700BF00F004B86802002082
:1046E0000004004830BCBDE8C09F000000B587B0A2
:1046F00000BF2848C06C40F002002649C864084644
:10470000C06C00F00200019000BF00BF00BF08466F
:10471000C06C40F00800C8640846C06C00F0080097
:10472000019000BF00BFD0200290012003900490B0
:104730000220059002A91848FDF786FD0022D0212D
:104740001548FDF78FFE8020029002A91348FDF75F
:104750007BFD002280211148FDF784FE002280218C
:104760000E48FDF77FFE002280210B48FDF77AFE00
:10477000002240210848FDF775FE782002F0D4FFA2
:10478000012240210448FDF76DFE01F053F807B007
:1047900000BD00000010024000040048000C00486A
:1047A00010B5FFF7A3FF782002F0BEFF112000F044
:1047B000E5FA782002F0B8FF362000F0DFFA00209A
:1047C00000F0EAFA3A2000F0D9FA652000F0E4FAA5
:1047D000B22000F0D3FA0C2000F0DEFA0C2000F03A
:1047E000DBFA002000F0D8FA332000F0D5FA3320AD
:1047F00000F0D2FAB72000F0C1FA722000F0CCFA33
:10480000BB2000F0BBFA3D2000F0C6FAC02000F04B
:10481000B5FA2C2000F0C0FAC22000F0AFFA012057
:1048200000F0BAFAC32000F0A9FA192000F0B4FA97
:10483000C42000F0A3FA202000F0AEFAC62000F059
:104840009DFA0F2000F0A8FAD02000F097FAA420DB
:1048500000F0A2FAA12000F09FFAE02000F08EFA0A
:10486000D02000F099FA042000F096FA0D2000F014
:1048700093FA112000F090FA132000F08DFA2B200B
:1048800000F08AFA3F2000F087FA542000F084FA02
:104890004C2000F081FA182000F07EFA0D2000F084
:1048A0007BFA0B2000F078FA1F2000F075FA232025
:1048B00000F072FAE12000F061FAD02000F06CFA0A
:1048C000042000F069FA0C2000F066FA112000F0D4
:1048D00063FA132000F060FA2C2000F05DFA3F200C
:1048E00000F05AFA442000F057FA512000F054FA30
:1048F0002F2000F051FA1F2000F04EFA1F2000F088
:104900004BFA202000F048FA232000F045FA21203D
:1049100000F034FA292000F031FAEF231A46002182
:104920000846FFF713FD4FF6FF70FFF739FD012230
:1049300080210248FDF796FD10BD000000040048EC
:1049400010B50246012000E050430B1EA1F1010406
:10495000E1B2F9D110BD70B504460D462946204696
:1049600000F092FF70BD00002DE9FE4F82468B469D
:1049700016461C46A6F12000C6B204EBD4714910BD
:10498000C1F1F001514503DBC4F1F001594501DAF1
:1049900000F0F2B804EBD4700AEB6000401E82B263
:1049A0000BEB0400401E83B2594650460094FFF7BB
:1049B000CDFC102C01D0202C4ED12046E31704EB67
:1049C0005373DB1021464FEAE47C04EB5C7C4FEA36
:1049D000EC0CA4EBCC0CBCF1000F02D04FF0010C9E
:1049E00001E04FF0000C6344224604EBD27C4FEA16
:1049F0006C0C03FB0CF303F0FF09002529E0102CDD
:104A000004D1574800EB0610475D07E0202C04D185
:104A1000544800EBC610475D00E0B9E74FF00008CE
:104A200012E007F0800018B14F480088029002E0C1
:104A30004E4800880290029800F0BCF97806070EF4
:104A400008F1010000F0FF08B8F1080FE9DB681C6D
:104A5000C5B24D45D3DB80E00C2C45D12046E31791
:104A600004EB5373DB1021464FEAE47C04EB5C7CDF
:104A70004FEAEC0CA4EBCC0CBCF1000F02D04FF0D1
:104A8000010C01E04FF0000C6344224604EBD27CA1
:104A90004FEA6C0C03FB0CF303F0FF09002520E048
:104AA00006EB4600324901EB8000475D4FF00008FD
:104AB00012E007F0800018B12B480088029002E055
:104AC0002A4800880290029800F074F97806070ED0
:104AD00008F1010000F0FF08B8F1060FE9DB681CDF
:104AE000C5B24D45DCDB38E0182C36D12001C117AA
:104AF00000EB5171C1F3C70900252CE006EB46001D
:104B00001C4901EB0010475D284605EBD0714910A8
:104B1000A5EB410111B90820019001E004200190AA
:104B20004FF0000812E007F0800018B10E4800882E
:104B3000029002E00D4800880290029800F03AF9D5
:104B40007806070E08F1010000F0FF080198804583
:104B5000E9DB681CC5B24D45D0DB00BF18E700009B
:104B6000F8C90008B8E100080A0000200C00002085
:104B700084C50008E8CF00081EBCBDE8E08F2DE921
:104B8000FF5F074691461E460E9D4FF0000A002427
:104B900035E0301B401EC1B20A20FFF7D1FEB9FB41
:104BA000F0F00A21B0FBF1F201FB1208BAF1000F9C
:104BB00014D1701EA04211DDB8F1000F0CD1AB462C
:104BC00005EBDB71491001FB047188B22B462022F2
:104BD0000199FFF7C9FE10E04FF0010AAB4605EB63
:104BE000DB71491001FB047188B208F13001CAB2CF
:104BF0002B460199FFF7B8FE00BF601CC4B2B44257
:104C0000C7DB00F000B83FBCBDE8C09F2DE9F0470E
:104C100004460D4690469946DDE9086704F0FF0A10
:104C200008EB04001FFA80F809EB05001FFA80F971
:104C300014E0444502DB5446A81985B24D4500DB1B
:104C400012E03A78334629462046FFF78DFE30467B
:104C500006EBD07104EB61018CB27F1C38787E28A2
:104C600002DC38782028E4DA00BFBDE8F0870000D5
:104C70002DE9F04106460F4614461D46DDF8188022
:104C80003019F02802DC7819F02801DDBDE8F08148
:104C90007819401E83B23019401E82B23946304620
:104CA000FFF754FB012210210648FDF7DBFB04FB54
:104CB00005F04FF6FF7202EA40014046FFF74BFE57
:104CC00000BFE3E7000400482DE9FF4F81B006462E
:104CD00091461F46DDE90E4A00200090002544E081
:104CE000781B401EC1B20A20FFF72AFEB9FBF0F084
:104CF0000A21B0FBF1F201FB1208009820BB781EDC
:104D0000A84221DDB8F1000F1CD1BAF1000F0CD080
:104D1000A34604EBDB71491001FB056188B2234611
:104D200030220299FFF720FE0BE0A34604EBDB7173
:104D3000491001FB056188B2234620220299FFF742
:104D400013FE10E001200090A34604EBDB71491034
:104D500001FB056188B208F13001CAB2234602990D
:104D6000FFF702FE00BF681CC5B2BD42B8DB05B04C
:104D700000F000B830BCBDE8C08F000001B50022D3
:104D800010210448FDF76EFB01216846FFF7E3FDA3
:104D900008BD00000004004801B5012210210448AC
:104DA000FDF760FB01216846FFF7D5FD08BD000057
:104DB0000004004838B504460020009020128DF809
:104DC0000000E0B28DF80100012210210348FDF738
:104DD00049FB02216846FFF7BEFD38BD00040048CC
:104DE00000B587B000BF1048C06C40F010000E49FD
:104DF000C8640846C06C00F01000019000BF00BFFE
:104E00004FF46070029001200390049002200590FE
:104E100002A90648FDF718FA01224FF46071034811
:104E2000FDF720FB07B000BD001002400010004855
:104E300000BFFEE77047000002480068C0F3022090
:104E4000704700000CED00E010B5002807DA0A07F3
:104E5000140E054A00F00F031B1FD45403E00A0789
:104E6000130E024A135410BD18ED00E000E400E0F8
:104E7000704710B54B6A33B1B2F1406F03D08B6A03
:104E80005B1E046823618B69002B76D00B6AE3B349
:104E90008B680468E361CB69FBB1D1E90B34234330
:104EA0004C6B23434C6A23438C8A43EA84430C694A
:104EB00023430C6A2343CC682343CC6923438C6986
:104EC00023430C682343134304686361B2F1406FCA
:104ED00002D04B680468A361BEE0D1E90B342343E0
:104EE0004C6B23434C6A23438C8A43EA84430C690A
:104EF00023430C6A2343CC6923438C6923430C6806
:104F00002343134304686361A6E0FFE7CB69EBB179
:104F1000D1E90B3423434C6B23434C6A23438C8AE3
:104F200043EA84430C6A2343CC682343CC6923437C
:104F30008C6923430C682343134304686361B2F113
:104F4000406FC9D04B680468A36185E0D1E90B3498
:104F500023434C6B23434C6A23438C8A43EA8443A8
:104F60000C6A2343CC6923438C6923430C68234395
:104F70001343046863616FE0FFE70B6AC3B38B6898
:104F80000468E361CB69EBB1D1E90B3423434C6B8B
:104F900023434C6A23438C8A43EA84430C692343AA
:104FA0000C6A2343CC682343CC6923438C69234395
:104FB000134304686361B2F1406F4DD04B680468DD
:104FC000A36149E0D1E90B3423434C6B23434C6A82
:104FD00023438C8A43EA84430C6923430C6A2343AA
:104FE000CC6923438C69234313430468636133E032
:104FF000FFE7CB69DBB1D1E90B3423434C6B23438F
:105000004C6A23438C8A43EA84430C6A2343CC686A
:105010002343CC6923438C692343134304686361AE
:10502000B2F1406F18D04B680468A36114E04B6A7A
:1050300093B1D1E90B3423434C6B23434C6A234394
:105040008C8A43EA84430C6A2343CC6923438C69EA
:10505000234313430468636110BD000010B50F487B
:105060000F4908600020486004210D48816010212C
:10507000C160080590FAA0F0B0FA80F0401E08491F
:1050800008614FF440710648416100218161FDF7DC
:1050900077FB08B9002010BD0120FCE7001000A03C
:1050A0004017012070B504460D46681E0649096880
:1050B000086141F2883221460348FDF7F9FB08B93F
:1050C000002070BD0120FCE7401701202DE9F047CA
:1050D0008EB004460D4616461F46DDE9179ADDF8E8
:1050E00058800094019505960697CDF81C80CDF860
:1050F0000C90CDF824A000200D9008900B900C90FF
:1051000041F2883269460348FDF7E7FA0EB0BDE880
:10511000F08700004017012070B504460D46681E58
:1051200006490968086141F2883221460348FDF7C3
:105130003AFC08B9002070BD0120FCE740170120AF
:105140002DE9F04104460E4617469846069D12E0AA
:10515000681C80B1FDF78CF9A0EB0800A84200D8CC
:105160004DB9042084F83900E06B40F00100E063A1
:105170000120BDE8F08120688068304008B101203E
:1051800000E00020B842E3D10020F2E7F8B5044681
:1051900000262348806D00F0805018B1FDF748FAD2
:1051A000054616E000BF1E48806D40F080501C4947
:1051B00088650846806D00F08050009000BF00BFF9
:1051C000FDF736FA05461648806D20F080501449E8
:1051D0008865B5F5007F07D1802C10D9A02C01D9A6
:1051E00002260CE001260AE0802C01D9032606E005
:1051F000802C01D1022602E0702C00D10126094842
:10520000006820F00700304306490860084600683F
:1052100000F00700B04201D00120F8BD0020FCE7FB
:10522000001002400020024010B50122082103486E
:10523000FDF718F9FF2000F0AFF910BD0008004895
:1052400070B5054601220021092000F0F0F904465E
:1052500024B91021284600F055F90446FFF7E4FF71
:105260000CB1012070BD0020FCE770B505464FF67B
:10527000FF7401E0601E84B2FF2000F08DF9A842A7
:1052800001D0002CF6D10CB9FF2070BD0020FCE746
:105290007FB56846FFF7D4FF10B1002004B070BDA1
:1052A0009DF8000000F0C000402809D19DF80900D9
:1052B0009DF8081000EB0120401C84B2A50220E0FC
:1052C0009DF8050000F00F009DF80A1000EBD110CA
:1052D0009DF8091001F0030100EB4100861C9DF8C8
:1052E000080080119DF8071000EB81009DF8061062
:1052F00001F0030100EB8120441CA6F1090004FA2F
:1053000000F52846CAE70000F8B500F017F900F0EC
:105310004EF9002504E0FF2000F03EF9681C85B23C
:105320000A2DF8DB142600BF95220021084600F064
:105330007EF90446012C04D0301EA6F101018EB284
:10534000F2D1002051490870012C4AD187224FF434
:10535000D571082000F06BF9012847D1002506E03F
:10536000FF2000F019F90DF80500681C85B2042D26
:10537000F6DB9DF80200012879D19DF80300AA28E8
:1053800075D14FF6FE7600BF01220021372000F0D4
:105390004EF901229107292000F049F9044624B171
:1053A000301EA6F101018EB2EED1002E5FD0012297
:1053B00000213A2000F03BF9002858D1002506E0F2
:1053C000FF2000F0E9F80DF80500681C85B2042DF7
:1053D000F6DB9DF8000000F0400018B106202B49D4
:1053E000087044E004202949087040E001220021AF
:1053F000372000F01CF901220021292000F017F9C4
:105400000446012C17DC0220204908704FF6FE7676
:1054100000BF01220021372000F009F901220021FC
:10542000292000F004F90446BCB1301EA6F10101A8
:105430008EB2EED111E00120144908704FF6FE76CD
:1054400000BF01220021104600F0F1F8044624B10B
:10545000301EA6F101018EB2F3D12EB1012251020C
:10546000102000F0E4F810B1002008490870FFF7A0
:10547000DBFE00F097F80548007808B10020F8BD81
:105480000CB12046FBE7AA20F9E700002C00002021
:105490002DE9F04106460F461546194800780628C2
:1054A00000D07F02012D0CD101223946112000F0DD
:1054B000BEF80446FCB96902304600F023F8044601
:1054C00019E001223946122000F0B1F8044600BF6D
:1054D0004FF40071304600F015F8044606F50076EA
:1054E000681EC0B2051E01D0002CF1D0012200219F
:1054F0000C2000F09CF8FFF797FE2046BDE8F081F5
:105500002C00002070B504460D46FE20FFF7ADFECE
:1055100008B1012070BD04E0FF2000F04BF92070BD
:10552000641C281EA5F101018DB2F5D1FF2000F009
:1055300033F8FF2000F030F80020EBE700B587B02B
:1055400000BF1348C06C40F004001149C86408460D
:10555000C06C00F00400019000BF00BF0820029062
:105560000120039004900220059002A90948FCF74D
:105570006BFE012208210748FCF774FF00F0ECF8ED
:10558000012208210348FCF76DFF07B000BD0000B1
:10559000001002400008004810B50446204600F004
:1055A00009F910BD10B5002000F014F910BD10B5B8
:1055B000382000F00FF910BD10B500220821064870
:1055C000FCF750FF00F06FF808B9002010BDFFF79E
:1055D0002BFE0120FAE700000008004870B50646DF
:1055E0000D4600F060F808B1012070BD2846FFF7B5
:1055F000D3FFFD2D19D0002404E0305D00F0DAF86F
:10560000601C84B2B4F5007FF7DBFF20FFF7C4FF16
:10561000FF20FFF7C1FFFF20FFF7BEFF044604F0A5
:105620001F00052801D00220DFE70020DDE72DE97B
:10563000F04105460C4617464FF00008FFF7F4FD11
:10564000FFF7BAFF10B1FF20BDE8F08145F0400040
:10565000FFF7A2FF200EFFF79FFFC4F30740FFF7FD
:105660009BFFC4F30720FFF797FFE0B2FFF794FF1B
:105670003846FFF791FF0C2D02D1FF20FFF78CFF7A
:105680004FF01F0800BFFF20FFF786FF064606F019
:10569000800030B1B8F10000A8F1010101F0FF086D
:1056A000F1D13046D0E710B5002400BFFF20FFF74E
:1056B00073FFFF2801D1002010BD641C6FF07F40F4
:1056C0008442F3D30120F7E72DE9F04106460F4667
:1056D000154620480078062800D07F02012D0CD105
:1056E000012239461820FFF7A2FF04466CBBFE21B9
:1056F0003046FFF773FF044627E01648007801287C
:1057000009D0012200213720FFF791FF012229460D
:105710001720FFF78CFF012239461920FFF787FF7A
:10572000044694B900BFFC213046FFF757FF0446FA
:1057300006F50076681EC0B2051E01D0002CF2D01E
:10574000FD210020FFF74AFF0446FFF76DFD2046CC
:10575000BDE8F0812C00002010B514481449086001
:105760004FF4827048600021114881604FF4E0617D
:10577000C160022101610121416149028161382139
:10578000C16100210162416281620721C162FDF7AE
:10579000F3FD07480068006840F0400004490968CC
:1057A0000860FF2000F03AF810BD00000030014012
:1057B000E827012001B582B04FF47A70012301AAD5
:1057C00002A900900248FDF75BFF9DF804000EBDA2
:1057D000E827012010490968096821F040010E4AB4
:1057E000126811600C49096809684FF6C7721140C8
:1057F000094A126811600849096809680143064AA4
:105800001268116004490968096841F04001024AC0
:105810001268116070470000E827012001B54FF4BD
:105820007A73012269460248FDF738FE08BD000080
:10583000E827012010B51248124908604FF4827021
:10584000486000210F4881604FF4E061C16002218F
:10585000016101214161490281610021C16101624F
:10586000416281620721C162FDF786FD054800683B
:10587000006840F0400003490968086010BD00005E
:10588000003C00408417012070B504460D464FF4DB
:105890007A732A4621460248FDF700FE70BD0000DB
:1058A00084170120F8B504460E46154633460022FB
:1058B0004FF4C0512046009500F026F828B1206E24
:1058C00040F0200020660320F8BD334600228021EE
:1058D0002046009500F06DF828B1206E40F02000C1
:1058E00020660320F0E7334600224FF4C0612046D3
:1058F000009500F009F828B1206E40F020002066E5
:105900000320E1E70020DFE72DE9F04104460E46E1
:1059100017461D46DDF8188044E0B6F5C06F02D189
:105920000FB92068007B681CD8B3FCF7A1FDA0EB81
:105930000800A84200D2A5BB2068406820F0E00023
:10594000216848606068B0F5827F0DD1A068B0F52D
:10595000004F03D0A068B0F5806F05D120680068C3
:1059600020F0400021680860A06AB0F5005F0DD10A
:1059700000BF2068006820F400502168086020689B
:10598000006840F400502168086000BF012084F8DE
:105990005D0000BF002084F85C0000BF0320BDE86C
:1059A000F081FFE7206880683040B842B5D1002020
:1059B000F5E72DE9F04104460E4617461D46DDF891
:1059C00018803EE0681CD8B3FCF752FDA0EB08003D
:1059D000A84200D2A5BB2068406820F0E000216802
:1059E00048606068B0F5827F0DD1A068B0F5004FC7
:1059F00003D0A068B0F5806F05D12068006820F062
:105A0000400021680860A06AB0F5005F0DD100BFBA
:105A10002068006820F40050216808602068006851
:105A200040F400502168086000BF012084F85D0048
:105A300000BF002084F85C0000BF0320BDE8F081B7
:105A4000FFE7206880683040B04201D1012000E0CB
:105A50000020B842B6D10020F0E770472DE9FF4F93
:105A6000A1B0804689461C462046E21704EB5272DC
:105A7000D2102146E31704EB5373DB10A4EBC303EE
:105A80000BB1012300E000231A44624302F0FF0B34
:105A90000C2C08D0102C06D0182C04D0202C02D0AE
:105AA00025B000F075B8224669462398FCF700FB44
:105AB000102C03D0182C01D0202C2BD14FF0080A29
:105AC00009EB0400401E83B208EB0400401E82B2C2
:105AD00049464046FEF73AFC002518E01DF80560EF
